{
  "_format": "hh-sol-artifact-1",
  "contractName": "Tracking",
  "sourceName": "contracts/Tracking.sol",
  "abi": [
    {
      "anonymous": false,
      "inputs": [
        {
          "indexed": true,
          "internalType": "address",
          "name": "sender",
          "type": "address"
        },
        {
          "indexed": true,
          "internalType": "address",
          "name": "receiver",
          "type": "address"
        },
        {
          "indexed": false,
          "internalType": "uint256",
          "name": "pickupTime",
          "type": "uint256"
        },
        {
          "indexed": false,
          "internalType": "uint256",
          "name": "distance",
          "type": "uint256"
        },
        {
          "indexed": false,
          "internalType": "uint256",
          "name": "price",
          "type": "uint256"
        }
      ],
      "name": "ShipmentCreated",
      "type": "event"
    },
    {
      "anonymous": false,
      "inputs": [
        {
          "indexed": true,
          "internalType": "address",
          "name": "sender",
          "type": "address"
        },
        {
          "indexed": true,
          "internalType": "address",
          "name": "receiver",
          "type": "address"
        },
        {
          "indexed": false,
          "internalType": "uint256",
          "name": "deliveryTime",
          "type": "uint256"
        }
      ],
      "name": "ShipmentDelivered",
      "type": "event"
    },
    {
      "anonymous": false,
      "inputs": [
        {
          "indexed": true,
          "internalType": "address",
          "name": "sender",
          "type": "address"
        },
        {
          "indexed": true,
          "internalType": "address",
          "name": "receiver",
          "type": "address"
        },
        {
          "indexed": false,
          "internalType": "uint256",
          "name": "pickupTime",
          "type": "uint256"
        }
      ],
      "name": "ShipmentInTransit",
      "type": "event"
    },
    {
      "anonymous": false,
      "inputs": [
        {
          "indexed": true,
          "internalType": "address",
          "name": "sender",
          "type": "address"
        },
        {
          "indexed": true,
          "internalType": "address",
          "name": "receiver",
          "type": "address"
        },
        {
          "indexed": false,
          "internalType": "uint256",
          "name": "amount",
          "type": "uint256"
        }
      ],
      "name": "ShipmentPaid",
      "type": "event"
    },
    {
      "inputs": [
        {
          "internalType": "uint256",
          "name": "",
          "type": "uint256"
        }
      ],
      "name": "allShipments",
      "outputs": [
        {
          "internalType": "address",
          "name": "sender",
          "type": "address"
        },
        {
          "internalType": "address",
          "name": "receiver",
          "type": "address"
        },
        {
          "internalType": "uint256",
          "name": "pickupTime",
          "type": "uint256"
        },
        {
          "internalType": "uint256",
          "name": "deliveryTime",
          "type": "uint256"
        },
        {
          "internalType": "uint256",
          "name": "distance",
          "type": "uint256"
        },
        {
          "internalType": "uint256",
          "name": "price",
          "type": "uint256"
        },
        {
          "internalType": "enum Tracking.ShipmentStatus",
          "name": "status",
          "type": "uint8"
        },
        {
          "internalType": "bool",
          "name": "isPaid",
          "type": "bool"
        }
      ],
      "stateMutability": "view",
      "type": "function"
    },
    {
      "inputs": [
        {
          "internalType": "address",
          "name": "_sender",
          "type": "address"
        },
        {
          "internalType": "address",
          "name": "_receiver",
          "type": "address"
        },
        {
          "internalType": "uint256",
          "name": "_index",
          "type": "uint256"
        }
      ],
      "name": "completeShipment",
      "outputs": [],
      "stateMutability": "nonpayable",
      "type": "function"
    },
    {
      "inputs": [
        {
          "internalType": "address",
          "name": "_receiver",
          "type": "address"
        },
        {
          "internalType": "uint256",
          "name": "_pickupTime",
          "type": "uint256"
        },
        {
          "internalType": "uint256",
          "name": "_distance",
          "type": "uint256"
        },
        {
          "internalType": "uint256",
          "name": "_price",
          "type": "uint256"
        }
      ],
      "name": "createShipment",
      "outputs": [],
      "stateMutability": "payable",
      "type": "function"
    },
    {
      "inputs": [],
      "name": "getAllShipments",
      "outputs": [
        {
          "components": [
            {
              "internalType": "address",
              "name": "sender",
              "type": "address"
            },
            {
              "internalType": "address",
              "name": "receiver",
              "type": "address"
            },
            {
              "internalType": "uint256",
              "name": "pickupTime",
              "type": "uint256"
            },
            {
              "internalType": "uint256",
              "name": "deliveryTime",
              "type": "uint256"
            },
            {
              "internalType": "uint256",
              "name": "distance",
              "type": "uint256"
            },
            {
              "internalType": "uint256",
              "name": "price",
              "type": "uint256"
            },
            {
              "internalType": "enum Tracking.ShipmentStatus",
              "name": "status",
              "type": "uint8"
            },
            {
              "internalType": "bool",
              "name": "isPaid",
              "type": "bool"
            }
          ],
          "internalType": "struct Tracking.Shipment[]",
          "name": "",
          "type": "tuple[]"
        }
      ],
      "stateMutability": "view",
      "type": "function"
    },
    {
      "inputs": [
        {
          "internalType": "address",
          "name": "_sender",
          "type": "address"
        },
        {
          "internalType": "uint256",
          "name": "_index",
          "type": "uint256"
        }
      ],
      "name": "getShipment",
      "outputs": [
        {
          "internalType": "address",
          "name": "",
          "type": "address"
        },
        {
          "internalType": "address",
          "name": "",
          "type": "address"
        },
        {
          "internalType": "uint256",
          "name": "",
          "type": "uint256"
        },
        {
          "internalType": "uint256",
          "name": "",
          "type": "uint256"
        },
        {
          "internalType": "uint256",
          "name": "",
          "type": "uint256"
        },
        {
          "internalType": "uint256",
          "name": "",
          "type": "uint256"
        },
        {
          "internalType": "enum Tracking.ShipmentStatus",
          "name": "",
          "type": "uint8"
        },
        {
          "internalType": "bool",
          "name": "",
          "type": "bool"
        }
      ],
      "stateMutability": "view",
      "type": "function"
    },
    {
      "inputs": [
        {
          "internalType": "address",
          "name": "_sender",
          "type": "address"
        }
      ],
      "name": "getShipmentsCount",
      "outputs": [
        {
          "internalType": "uint256",
          "name": "",
          "type": "uint256"
        }
      ],
      "stateMutability": "view",
      "type": "function"
    },
    {
      "inputs": [],
      "name": "shipmentCount",
      "outputs": [
        {
          "internalType": "uint256",
          "name": "",
          "type": "uint256"
        }
      ],
      "stateMutability": "view",
      "type": "function"
    },
    {
      "inputs": [
        {
          "internalType": "address",
          "name": "",
          "type": "address"
        },
        {
          "internalType": "uint256",
          "name": "",
          "type": "uint256"
        }
      ],
      "name": "shipments",
      "outputs": [
        {
          "internalType": "address",
          "name": "sender",
          "type": "address"
        },
        {
          "internalType": "address",
          "name": "receiver",
          "type": "address"
        },
        {
          "internalType": "uint256",
          "name": "pickupTime",
          "type": "uint256"
        },
        {
          "internalType": "uint256",
          "name": "deliveryTime",
          "type": "uint256"
        },
        {
          "internalType": "uint256",
          "name": "distance",
          "type": "uint256"
        },
        {
          "internalType": "uint256",
          "name": "price",
          "type": "uint256"
        },
        {
          "internalType": "enum Tracking.ShipmentStatus",
          "name": "status",
          "type": "uint8"
        },
        {
          "internalType": "bool",
          "name": "isPaid",
          "type": "bool"
        }
      ],
      "stateMutability": "view",
      "type": "function"
    },
    {
      "inputs": [
        {
          "internalType": "address",
          "name": "_sender",
          "type": "address"
        },
        {
          "internalType": "address",
          "name": "_receiver",
          "type": "address"
        },
        {
          "internalType": "uint256",
          "name": "_index",
          "type": "uint256"
        }
      ],
      "name": "startShipment",
      "outputs": [],
      "stateMutability": "nonpayable",
      "type": "function"
    }
  ],
  "bytecode": "0x608060405234801561001057600080fd5b50611929806100206000396000f3fe6080604052600436106100865760003560e01c80635667e02f116100595780635667e02f146101605780637ff5265d146101a45780638365da54146101cd578063aace20b714610211578063cbc4b1811461023c57610086565b80630612e03b1461008b578063179a878c146100cf57806341fdc195146100f8578063494dad6c14610135575b600080fd5b34801561009757600080fd5b506100b260048036038101906100ad9190611118565b610258565b6040516100c6989796959493929190611227565b60405180910390f35b3480156100db57600080fd5b506100f660048036038101906100f191906112d1565b61030a565b005b34801561010457600080fd5b5061011f600480360381019061011a9190611324565b610662565b60405161012c9190611351565b60405180910390f35b34801561014157600080fd5b5061014a6106ad565b60405161015791906114fa565b60405180910390f35b34801561016c57600080fd5b506101876004803603810190610182919061151c565b610837565b60405161019b989796959493929190611227565b60405180910390f35b3480156101b057600080fd5b506101cb60048036038101906101c691906112d1565b6108f6565b005b3480156101d957600080fd5b506101f460048036038101906101ef919061151c565b610afe565b604051610208989796959493929190611227565b60405180910390f35b34801561021d57600080fd5b50610226610ce8565b6040516102339190611351565b60405180910390f35b6102566004803603810190610251919061155c565b610cee565b005b6002818154811061026857600080fd5b90600052602060002090600702016000915090508060000160009054906101000a900473ffffffffffffffffffffffffffffffffffffffff16908060010160009054906101000a900473ffffffffffffffffffffffffffffffffffffffff16908060020154908060030154908060040154908060050154908060060160009054906101000a900460ff16908060060160019054906101000a900460ff16905088565b60008060008573ffffffffffffffffffffffffffffffffffffffff1673ffffffffffffffffffffffffffffffffffffffff168152602001908152602001600020828154811061035c5761035b6115c3565b5b906000526020600020906007020190508273ffffffffffffffffffffffffffffffffffffffff168160010160009054906101000a900473ffffffffffffffffffffffffffffffffffffffff1673ffffffffffffffffffffffffffffffffffffffff16146103fe576040517f08c379a00000000000000000000000000000000000000000000000000000000081526004016103f59061164f565b60405180910390fd5b6001600281111561041257610411611195565b5b8160060160009054906101000a900460ff16600281111561043657610435611195565b5b14610476576040517f08c379a000000000000000000000000000000000000000000000000000000000815260040161046d906116bb565b60405180910390fd5b8060060160019054906101000a900460ff16156104c8576040517f08c379a00000000000000000000000000000000000000000000000000000000081526004016104bf90611727565b60405180910390fd5b60028160060160006101000a81548160ff021916908360028111156104f0576104ef611195565b5b021790555042816003018190555060018160060160016101000a81548160ff0219169083151502179055508060000160009054906101000a900473ffffffffffffffffffffffffffffffffffffffff1673ffffffffffffffffffffffffffffffffffffffff166108fc82600501549081150290604051600060405180830381858888f19350505050158015610589573d6000803e3d6000fd5b508273ffffffffffffffffffffffffffffffffffffffff168473ffffffffffffffffffffffffffffffffffffffff167f3746ccceb54f44c9b0ee0120e596168d07ec9f6ca303cfdd9810d3b2e2686a2e83600301546040516105eb9190611351565b60405180910390a38273ffffffffffffffffffffffffffffffffffffffff168473ffffffffffffffffffffffffffffffffffffffff167f2b6f2473aebafaf8d0889669490135928ec4454d2e29a103fd39693bbca6aef183600501546040516106549190611351565b60405180910390a350505050565b60008060008373ffffffffffffffffffffffffffffffffffffffff1673ffffffffffffffffffffffffffffffffffffffff168152602001908152602001600020805490509050919050565b60606002805480602002602001604051908101604052809291908181526020016000905b8282101561082e5783829060005260206000209060070201604051806101000160405290816000820160009054906101000a900473ffffffffffffffffffffffffffffffffffffffff1673ffffffffffffffffffffffffffffffffffffffff1673ffffffffffffffffffffffffffffffffffffffff1681526020016001820160009054906101000a900473ffffffffffffffffffffffffffffffffffffffff1673ffffffffffffffffffffffffffffffffffffffff1673ffffffffffffffffffffffffffffffffffffffff168152602001600282015481526020016003820154815260200160048201548152602001600582015481526020016006820160009054906101000a900460ff1660028111156107ee576107ed611195565b5b6002811115610800576107ff611195565b5b81526020016006820160019054906101000a900460ff161515151581525050815260200190600101906106d1565b50505050905090565b6000602052816000526040600020818154811061085357600080fd5b9060005260206000209060070201600091509150508060000160009054906101000a900473ffffffffffffffffffffffffffffffffffffffff16908060010160009054906101000a900473ffffffffffffffffffffffffffffffffffffffff16908060020154908060030154908060040154908060050154908060060160009054906101000a900460ff16908060060160019054906101000a900460ff16905088565b60008060008573ffffffffffffffffffffffffffffffffffffffff1673ffffffffffffffffffffffffffffffffffffffff1681526020019081526020016000208281548110610948576109476115c3565b5b906000526020600020906007020190508273ffffffffffffffffffffffffffffffffffffffff168160010160009054906101000a900473ffffffffffffffffffffffffffffffffffffffff1673ffffffffffffffffffffffffffffffffffffffff16146109ea576040517f08c379a00000000000000000000000000000000000000000000000000000000081526004016109e19061164f565b60405180910390fd5b600060028111156109fe576109fd611195565b5b8160060160009054906101000a900460ff166002811115610a2257610a21611195565b5b14610a62576040517f08c379a0000000000000000000000000000000000000000000000000000000008152600401610a5990611793565b60405180910390fd5b60018160060160006101000a81548160ff02191690836002811115610a8a57610a89611195565b5b02179055508273ffffffffffffffffffffffffffffffffffffffff168473ffffffffffffffffffffffffffffffffffffffff167faafab9f94340179ff9cefd29621e1772a4b8efab8023163838f1b0a8f6ce5df58360020154604051610af09190611351565b60405180910390a350505050565b60008060008060008060008060008060008c73ffffffffffffffffffffffffffffffffffffffff1673ffffffffffffffffffffffffffffffffffffffff1681526020019081526020016000208a81548110610b5c57610b5b6115c3565b5b9060005260206000209060070201604051806101000160405290816000820160009054906101000a900473ffffffffffffffffffffffffffffffffffffffff1673ffffffffffffffffffffffffffffffffffffffff1673ffffffffffffffffffffffffffffffffffffffff1681526020016001820160009054906101000a900473ffffffffffffffffffffffffffffffffffffffff1673ffffffffffffffffffffffffffffffffffffffff1673ffffffffffffffffffffffffffffffffffffffff168152602001600282015481526020016003820154815260200160048201548152602001600582015481526020016006820160009054906101000a900460ff166002811115610c6f57610c6e611195565b5b6002811115610c8157610c80611195565b5b81526020016006820160019054906101000a900460ff1615151515815250509050806000015181602001518260400151836060015184608001518560a001518660c001518760e0015198509850985098509850985098509850509295985092959890939650565b60015481565b803414610d30576040517f08c379a0000000000000000000000000000000000000000000000000000000008152600401610d2790611825565b60405180910390fd5b60006040518061010001604052803373ffffffffffffffffffffffffffffffffffffffff1681526020018673ffffffffffffffffffffffffffffffffffffffff1681526020018581526020016000815260200184815260200183815260200160006002811115610da357610da2611195565b5b81526020016000151581525090506000803373ffffffffffffffffffffffffffffffffffffffff1673ffffffffffffffffffffffffffffffffffffffff16815260200190815260200160002081908060018154018082558091505060019003906000526020600020906007020160009091909190915060008201518160000160006101000a81548173ffffffffffffffffffffffffffffffffffffffff021916908373ffffffffffffffffffffffffffffffffffffffff16021790555060208201518160010160006101000a81548173ffffffffffffffffffffffffffffffffffffffff021916908373ffffffffffffffffffffffffffffffffffffffff16021790555060408201518160020155606082015181600301556080820151816004015560a0820151816005015560c08201518160060160006101000a81548160ff02191690836002811115610efa57610ef9611195565b5b021790555060e08201518160060160016101000a81548160ff0219169083151502179055505050600281908060018154018082558091505060019003906000526020600020906007020160009091909190915060008201518160000160006101000a81548173ffffffffffffffffffffffffffffffffffffffff021916908373ffffffffffffffffffffffffffffffffffffffff16021790555060208201518160010160006101000a81548173ffffffffffffffffffffffffffffffffffffffff021916908373ffffffffffffffffffffffffffffffffffffffff16021790555060408201518160020155606082015181600301556080820151816004015560a0820151816005015560c08201518160060160006101000a81548160ff0219169083600281111561102e5761102d611195565b5b021790555060e08201518160060160016101000a81548160ff02191690831515021790555050506001600081548092919061106890611874565b91905055508473ffffffffffffffffffffffffffffffffffffffff163373ffffffffffffffffffffffffffffffffffffffff167f5001b34ecf2db5b7bbeddcbbe761ec9ecadcc7638018b98ce3e24995b0e946b68686866040516110ce939291906118bc565b60405180910390a35050505050565b600080fd5b6000819050919050565b6110f5816110e2565b811461110057600080fd5b50565b600081359050611112816110ec565b92915050565b60006020828403121561112e5761112d6110dd565b5b600061113c84828501611103565b91505092915050565b600073ffffffffffffffffffffffffffffffffffffffff82169050919050565b600061117082611145565b9050919050565b61118081611165565b82525050565b61118f816110e2565b82525050565b7f4e487b7100000000000000000000000000000000000000000000000000000000600052602160045260246000fd5b600381106111d5576111d4611195565b5b50565b60008190506111e6826111c4565b919050565b60006111f6826111d8565b9050919050565b611206816111eb565b82525050565b60008115159050919050565b6112218161120c565b82525050565b60006101008201905061123d600083018b611177565b61124a602083018a611177565b6112576040830189611186565b6112646060830188611186565b6112716080830187611186565b61127e60a0830186611186565b61128b60c08301856111fd565b61129860e0830184611218565b9998505050505050505050565b6112ae81611165565b81146112b957600080fd5b50565b6000813590506112cb816112a5565b92915050565b6000806000606084860312156112ea576112e96110dd565b5b60006112f8868287016112bc565b9350506020611309868287016112bc565b925050604061131a86828701611103565b9150509250925092565b60006020828403121561133a576113396110dd565b5b6000611348848285016112bc565b91505092915050565b60006020820190506113666000830184611186565b92915050565b600081519050919050565b600082825260208201905092915050565b6000819050602082019050919050565b6113a181611165565b82525050565b6113b0816110e2565b82525050565b6113bf816111eb565b82525050565b6113ce8161120c565b82525050565b610100820160008201516113eb6000850182611398565b5060208201516113fe6020850182611398565b50604082015161141160408501826113a7565b50606082015161142460608501826113a7565b50608082015161143760808501826113a7565b5060a082015161144a60a08501826113a7565b5060c082015161145d60c08501826113b6565b5060e082015161147060e08501826113c5565b50505050565b600061148283836113d4565b6101008301905092915050565b6000602082019050919050565b60006114a78261136c565b6114b18185611377565b93506114bc83611388565b8060005b838110156114ed5781516114d48882611476565b97506114df8361148f565b9250506001810190506114c0565b5085935050505092915050565b60006020820190508181036000830152611514818461149c565b905092915050565b60008060408385031215611533576115326110dd565b5b6000611541858286016112bc565b925050602061155285828601611103565b9150509250929050565b60008060008060808587031215611576576115756110dd565b5b6000611584878288016112bc565b945050602061159587828801611103565b93505060406115a687828801611103565b92505060606115b787828801611103565b91505092959194509250565b7f4e487b7100000000000000000000000000000000000000000000000000000000600052603260045260246000fd5b600082825260208201905092915050565b7f496e76616c69642072656365697665722e000000000000000000000000000000600082015250565b60006116396011836115f2565b915061164482611603565b602082019050919050565b600060208201905081810360008301526116688161162c565b9050919050565b7f536869706d656e74206e6f7420696e207472616e7369742e0000000000000000600082015250565b60006116a56018836115f2565b91506116b08261166f565b602082019050919050565b600060208201905081810360008301526116d481611698565b9050919050565b7f536869706d656e7420616c726561647920706169642e00000000000000000000600082015250565b60006117116016836115f2565b915061171c826116db565b602082019050919050565b6000602082019050818103600083015261174081611704565b9050919050565b7f536869706d656e7420616c726561647920696e207472616e7369742e00000000600082015250565b600061177d601c836115f2565b915061178882611747565b602082019050919050565b600060208201905081810360008301526117ac81611770565b9050919050565b7f5061796d656e7420616d6f756e74206d757374206d617463682074686520707260008201527f6963652e00000000000000000000000000000000000000000000000000000000602082015250565b600061180f6024836115f2565b915061181a826117b3565b604082019050919050565b6000602082019050818103600083015261183e81611802565b9050919050565b7f4e487b7100000000000000000000000000000000000000000000000000000000600052601160045260246000fd5b600061187f826110e2565b91507fffffffffffffffffffffffffffffffffffffffffffffffffffffffffffffffff82036118b1576118b0611845565b5b600182019050919050565b60006060820190506118d16000830186611186565b6118de6020830185611186565b6118eb6040830184611186565b94935050505056fea2646970667358221220093fcd9c6a0d95950b529c2eb24cbb841c45d8650957255c1f3aa19d9d97d16864736f6c63430008180033",
  "linkReferences": {},
  "deployedLinkReferences": {}
}